{
  "_format": "hh-sol-artifact-1",
  "contractName": "OnChainNFT",
  "sourceName": "contracts/NFTonChain.sol",
  "abi": [
    {
      "inputs": [],
      "stateMutability": "nonpayable",
      "type": "constructor"
    },
    {
      "inputs": [
        {
          "internalType": "address",
          "name": "sender",
          "type": "address"
        },
        {
          "internalType": "uint256",
          "name": "tokenId",
          "type": "uint256"
        },
        {
          "internalType": "address",
          "name": "owner",
          "type": "address"
        }
      ],
      "name": "ERC721IncorrectOwner",
      "type": "error"
    },
    {
      "inputs": [
        {
          "internalType": "address",
          "name": "operator",
          "type": "address"
        },
        {
          "internalType": "uint256",
          "name": "tokenId",
          "type": "uint256"
        }
      ],
      "name": "ERC721InsufficientApproval",
      "type": "error"
    },
    {
      "inputs": [
        {
          "internalType": "address",
          "name": "approver",
          "type": "address"
        }
      ],
      "name": "ERC721InvalidApprover",
      "type": "error"
    },
    {
      "inputs": [
        {
          "internalType": "address",
          "name": "operator",
          "type": "address"
        }
      ],
      "name": "ERC721InvalidOperator",
      "type": "error"
    },
    {
      "inputs": [
        {
          "internalType": "address",
          "name": "owner",
          "type": "address"
        }
      ],
      "name": "ERC721InvalidOwner",
      "type": "error"
    },
    {
      "inputs": [
        {
          "internalType": "address",
          "name": "receiver",
          "type": "address"
        }
      ],
      "name": "ERC721InvalidReceiver",
      "type": "error"
    },
    {
      "inputs": [
        {
          "internalType": "address",
          "name": "sender",
          "type": "address"
        }
      ],
      "name": "ERC721InvalidSender",
      "type": "error"
    },
    {
      "inputs": [
        {
          "internalType": "uint256",
          "name": "tokenId",
          "type": "uint256"
        }
      ],
      "name": "ERC721NonexistentToken",
      "type": "error"
    },
    {
      "inputs": [
        {
          "internalType": "address",
          "name": "owner",
          "type": "address"
        }
      ],
      "name": "OwnableInvalidOwner",
      "type": "error"
    },
    {
      "inputs": [
        {
          "internalType": "address",
          "name": "account",
          "type": "address"
        }
      ],
      "name": "OwnableUnauthorizedAccount",
      "type": "error"
    },
    {
      "anonymous": false,
      "inputs": [
        {
          "indexed": true,
          "internalType": "address",
          "name": "owner",
          "type": "address"
        },
        {
          "indexed": true,
          "internalType": "address",
          "name": "approved",
          "type": "address"
        },
        {
          "indexed": true,
          "internalType": "uint256",
          "name": "tokenId",
          "type": "uint256"
        }
      ],
      "name": "Approval",
      "type": "event"
    },
    {
      "anonymous": false,
      "inputs": [
        {
          "indexed": true,
          "internalType": "address",
          "name": "owner",
          "type": "address"
        },
        {
          "indexed": true,
          "internalType": "address",
          "name": "operator",
          "type": "address"
        },
        {
          "indexed": false,
          "internalType": "bool",
          "name": "approved",
          "type": "bool"
        }
      ],
      "name": "ApprovalForAll",
      "type": "event"
    },
    {
      "anonymous": false,
      "inputs": [
        {
          "indexed": false,
          "internalType": "uint256",
          "name": "_fromTokenId",
          "type": "uint256"
        },
        {
          "indexed": false,
          "internalType": "uint256",
          "name": "_toTokenId",
          "type": "uint256"
        }
      ],
      "name": "BatchMetadataUpdate",
      "type": "event"
    },
    {
      "anonymous": false,
      "inputs": [
        {
          "indexed": false,
          "internalType": "uint256",
          "name": "_tokenId",
          "type": "uint256"
        }
      ],
      "name": "MetadataUpdate",
      "type": "event"
    },
    {
      "anonymous": false,
      "inputs": [
        {
          "indexed": false,
          "internalType": "uint256",
          "name": "tokenId",
          "type": "uint256"
        }
      ],
      "name": "Minted",
      "type": "event"
    },
    {
      "anonymous": false,
      "inputs": [
        {
          "indexed": true,
          "internalType": "address",
          "name": "previousOwner",
          "type": "address"
        },
        {
          "indexed": true,
          "internalType": "address",
          "name": "newOwner",
          "type": "address"
        }
      ],
      "name": "OwnershipTransferred",
      "type": "event"
    },
    {
      "anonymous": false,
      "inputs": [
        {
          "indexed": true,
          "internalType": "address",
          "name": "from",
          "type": "address"
        },
        {
          "indexed": true,
          "internalType": "address",
          "name": "to",
          "type": "address"
        },
        {
          "indexed": true,
          "internalType": "uint256",
          "name": "tokenId",
          "type": "uint256"
        }
      ],
      "name": "Transfer",
      "type": "event"
    },
    {
      "inputs": [
        {
          "internalType": "address",
          "name": "to",
          "type": "address"
        },
        {
          "internalType": "uint256",
          "name": "tokenId",
          "type": "uint256"
        }
      ],
      "name": "approve",
      "outputs": [],
      "stateMutability": "nonpayable",
      "type": "function"
    },
    {
      "inputs": [
        {
          "internalType": "address",
          "name": "owner",
          "type": "address"
        }
      ],
      "name": "balanceOf",
      "outputs": [
        {
          "internalType": "uint256",
          "name": "",
          "type": "uint256"
        }
      ],
      "stateMutability": "view",
      "type": "function"
    },
    {
      "inputs": [
        {
          "internalType": "string",
          "name": "imageURI",
          "type": "string"
        }
      ],
      "name": "formatTokenURI",
      "outputs": [
        {
          "internalType": "string",
          "name": "",
          "type": "string"
        }
      ],
      "stateMutability": "pure",
      "type": "function"
    },
    {
      "inputs": [
        {
          "internalType": "uint256",
          "name": "tokenId",
          "type": "uint256"
        }
      ],
      "name": "getApproved",
      "outputs": [
        {
          "internalType": "address",
          "name": "",
          "type": "address"
        }
      ],
      "stateMutability": "view",
      "type": "function"
    },
    {
      "inputs": [
        {
          "internalType": "address",
          "name": "owner",
          "type": "address"
        },
        {
          "internalType": "address",
          "name": "operator",
          "type": "address"
        }
      ],
      "name": "isApprovedForAll",
      "outputs": [
        {
          "internalType": "bool",
          "name": "",
          "type": "bool"
        }
      ],
      "stateMutability": "view",
      "type": "function"
    },
    {
      "inputs": [
        {
          "internalType": "string",
          "name": "svg",
          "type": "string"
        }
      ],
      "name": "mint",
      "outputs": [],
      "stateMutability": "nonpayable",
      "type": "function"
    },
    {
      "inputs": [],
      "name": "name",
      "outputs": [
        {
          "internalType": "string",
          "name": "",
          "type": "string"
        }
      ],
      "stateMutability": "view",
      "type": "function"
    },
    {
      "inputs": [],
      "name": "owner",
      "outputs": [
        {
          "internalType": "address",
          "name": "",
          "type": "address"
        }
      ],
      "stateMutability": "view",
      "type": "function"
    },
    {
      "inputs": [
        {
          "internalType": "uint256",
          "name": "tokenId",
          "type": "uint256"
        }
      ],
      "name": "ownerOf",
      "outputs": [
        {
          "internalType": "address",
          "name": "",
          "type": "address"
        }
      ],
      "stateMutability": "view",
      "type": "function"
    },
    {
      "inputs": [],
      "name": "renounceOwnership",
      "outputs": [],
      "stateMutability": "nonpayable",
      "type": "function"
    },
    {
      "inputs": [
        {
          "internalType": "address",
          "name": "from",
          "type": "address"
        },
        {
          "internalType": "address",
          "name": "to",
          "type": "address"
        },
        {
          "internalType": "uint256",
          "name": "tokenId",
          "type": "uint256"
        }
      ],
      "name": "safeTransferFrom",
      "outputs": [],
      "stateMutability": "nonpayable",
      "type": "function"
    },
    {
      "inputs": [
        {
          "internalType": "address",
          "name": "from",
          "type": "address"
        },
        {
          "internalType": "address",
          "name": "to",
          "type": "address"
        },
        {
          "internalType": "uint256",
          "name": "tokenId",
          "type": "uint256"
        },
        {
          "internalType": "bytes",
          "name": "data",
          "type": "bytes"
        }
      ],
      "name": "safeTransferFrom",
      "outputs": [],
      "stateMutability": "nonpayable",
      "type": "function"
    },
    {
      "inputs": [
        {
          "internalType": "address",
          "name": "operator",
          "type": "address"
        },
        {
          "internalType": "bool",
          "name": "approved",
          "type": "bool"
        }
      ],
      "name": "setApprovalForAll",
      "outputs": [],
      "stateMutability": "nonpayable",
      "type": "function"
    },
    {
      "inputs": [
        {
          "internalType": "bytes4",
          "name": "interfaceId",
          "type": "bytes4"
        }
      ],
      "name": "supportsInterface",
      "outputs": [
        {
          "internalType": "bool",
          "name": "",
          "type": "bool"
        }
      ],
      "stateMutability": "view",
      "type": "function"
    },
    {
      "inputs": [
        {
          "internalType": "string",
          "name": "svg",
          "type": "string"
        }
      ],
      "name": "svgToImageURI",
      "outputs": [
        {
          "internalType": "string",
          "name": "",
          "type": "string"
        }
      ],
      "stateMutability": "pure",
      "type": "function"
    },
    {
      "inputs": [],
      "name": "symbol",
      "outputs": [
        {
          "internalType": "string",
          "name": "",
          "type": "string"
        }
      ],
      "stateMutability": "view",
      "type": "function"
    },
    {
      "inputs": [
        {
          "internalType": "uint256",
          "name": "tokenId",
          "type": "uint256"
        }
      ],
      "name": "tokenURI",
      "outputs": [
        {
          "internalType": "string",
          "name": "",
          "type": "string"
        }
      ],
      "stateMutability": "view",
      "type": "function"
    },
    {
      "inputs": [
        {
          "internalType": "address",
          "name": "from",
          "type": "address"
        },
        {
          "internalType": "address",
          "name": "to",
          "type": "address"
        },
        {
          "internalType": "uint256",
          "name": "tokenId",
          "type": "uint256"
        }
      ],
      "name": "transferFrom",
      "outputs": [],
      "stateMutability": "nonpayable",
      "type": "function"
    },
    {
      "inputs": [
        {
          "internalType": "address",
          "name": "newOwner",
          "type": "address"
        }
      ],
      "name": "transferOwnership",
      "outputs": [],
      "stateMutability": "nonpayable",
      "type": "function"
    }
  ],
  "bytecode": "0x608060405234801561001057600080fd5b50336040518060400160405280600a81526020017f4f6e436861696e4e4654000000000000000000000000000000000000000000008152506040518060400160405280600381526020017f4f4e430000000000000000000000000000000000000000000000000000000000815250816000908161008d919061043d565b50806001908161009d919061043d565b505050600073ffffffffffffffffffffffffffffffffffffffff168173ffffffffffffffffffffffffffffffffffffffff16036101125760006040517f1e4fbdf70000000000000000000000000000000000000000000000000000000081526004016101099190610550565b60405180910390fd5b6101218161012760201b60201c565b5061056b565b6000600760009054906101000a900473ffffffffffffffffffffffffffffffffffffffff16905081600760006101000a81548173ffffffffffffffffffffffffffffffffffffffff021916908373ffffffffffffffffffffffffffffffffffffffff1602179055508173ffffffffffffffffffffffffffffffffffffffff168173ffffffffffffffffffffffffffffffffffffffff167f8be0079c531659141344cd1fd0a4f28419497f9722a3daafe3b4186f6b6457e060405160405180910390a35050565b600081519050919050565b7f4e487b7100000000000000000000000000000000000000000000000000000000600052604160045260246000fd5b7f4e487b7100000000000000000000000000000000000000000000000000000000600052602260045260246000fd5b6000600282049050600182168061026e57607f821691505b60208210810361028157610280610227565b5b50919050565b60008190508160005260206000209050919050565b60006020601f8301049050919050565b600082821b905092915050565b6000600883026102e97fffffffffffffffffffffffffffffffffffffffffffffffffffffffffffffffff826102ac565b6102f386836102ac565b95508019841693508086168417925050509392505050565b6000819050919050565b6000819050919050565b600061033a6103356103308461030b565b610315565b61030b565b9050919050565b6000819050919050565b6103548361031f565b61036861036082610341565b8484546102b9565b825550505050565b600090565b61037d610370565b61038881848461034b565b505050565b5b818110156103ac576103a1600082610375565b60018101905061038e565b5050565b601f8211156103f1576103c281610287565b6103cb8461029c565b810160208510156103da578190505b6103ee6103e68561029c565b83018261038d565b50505b505050565b600082821c905092915050565b6000610414600019846008026103f6565b1980831691505092915050565b600061042d8383610403565b9150826002028217905092915050565b610446826101ed565b67ffffffffffffffff81111561045f5761045e6101f8565b5b6104698254610256565b6104748282856103b0565b600060209050601f8311600181146104a75760008415610495578287015190505b61049f8582610421565b865550610507565b601f1984166104b586610287565b60005b828110156104dd578489015182556001820191506020850194506020810190506104b8565b868310156104fa57848901516104f6601f891682610403565b8355505b6001600288020188555050505b505050505050565b600073ffffffffffffffffffffffffffffffffffffffff82169050919050565b600061053a8261050f565b9050919050565b61054a8161052f565b82525050565b60006020820190506105656000830184610541565b92915050565b612bd28061057a6000396000f3fe608060405234801561001057600080fd5b50600436106101215760003560e01c8063715018a6116100ad578063b88d4fde11610071578063b88d4fde1461031a578063c87b56dd14610336578063d85d3d2714610366578063e985e9c514610382578063f2fde38b146103b257610121565b8063715018a61461028857806371aee193146102925780638da5cb5b146102c257806395d89b41146102e0578063a22cb465146102fe57610121565b806323b872dd116100f457806323b872dd146101c057806330d871c6146101dc57806342842e0e1461020c5780636352211e1461022857806370a082311461025857610121565b806301ffc9a71461012657806306fdde0314610156578063081812fc14610174578063095ea7b3146101a4575b600080fd5b610140600480360381019061013b9190611dd7565b6103ce565b60405161014d9190611e1f565b60405180910390f35b61015e61042f565b60405161016b9190611eca565b60405180910390f35b61018e60048036038101906101899190611f22565b6104c1565b60405161019b9190611f90565b60405180910390f35b6101be60048036038101906101b99190611fd7565b6104dd565b005b6101da60048036038101906101d59190612017565b6104f3565b005b6101f660048036038101906101f1919061219f565b6105f5565b6040516102039190611eca565b60405180910390f35b61022660048036038101906102219190612017565b610669565b005b610242600480360381019061023d9190611f22565b610689565b60405161024f9190611f90565b60405180910390f35b610272600480360381019061026d91906121e8565b61069b565b60405161027f9190612224565b60405180910390f35b610290610755565b005b6102ac60048036038101906102a7919061219f565b610769565b6040516102b99190611eca565b60405180910390f35b6102ca6107b9565b6040516102d79190611f90565b60405180910390f35b6102e86107e3565b6040516102f59190611eca565b60405180910390f35b6103186004803603810190610313919061226b565b610875565b005b610334600480360381019061032f919061234c565b61088b565b005b610350600480360381019061034b9190611f22565b6108a8565b60405161035d9190611eca565b60405180910390f35b610380600480360381019061037b919061219f565b6109bb565b005b61039c600480360381019061039791906123cf565b610a4b565b6040516103a99190611e1f565b60405180910390f35b6103cc60048036038101906103c791906121e8565b610adf565b005b6000634906490660e01b7bffffffffffffffffffffffffffffffffffffffffffffffffffffffff1916827bffffffffffffffffffffffffffffffffffffffffffffffffffffffff19161480610428575061042782610b65565b5b9050919050565b60606000805461043e9061243e565b80601f016020809104026020016040519081016040528092919081815260200182805461046a9061243e565b80156104b75780601f1061048c576101008083540402835291602001916104b7565b820191906000526020600020905b81548152906001019060200180831161049a57829003601f168201915b5050505050905090565b60006104cc82610c47565b506104d682610ccf565b9050919050565b6104ef82826104ea610d0c565b610d14565b5050565b600073ffffffffffffffffffffffffffffffffffffffff168273ffffffffffffffffffffffffffffffffffffffff16036105655760006040517f64a0ae9200000000000000000000000000000000000000000000000000000000815260040161055c9190611f90565b60405180910390fd5b60006105798383610574610d0c565b610d26565b90508373ffffffffffffffffffffffffffffffffffffffff168173ffffffffffffffffffffffffffffffffffffffff16146105ef578382826040517f64283d7b0000000000000000000000000000000000000000000000000000000081526004016105e69392919061246f565b60405180910390fd5b50505050565b606060006040518060400160405280601a81526020017f646174613a696d6167652f7376672b786d6c3b6261736536342c0000000000008152509050600061063c84610f40565b905081816040516020016106519291906124e2565b60405160208183030381529060405292505050919050565b6106848383836040518060200160405280600081525061088b565b505050565b600061069482610c47565b9050919050565b60008073ffffffffffffffffffffffffffffffffffffffff168273ffffffffffffffffffffffffffffffffffffffff160361070e5760006040517f89c62b640000000000000000000000000000000000000000000000000000000081526004016107059190611f90565b60405180910390fd5b600360008373ffffffffffffffffffffffffffffffffffffffff1673ffffffffffffffffffffffffffffffffffffffff168152602001908152602001600020549050919050565b61075d6110d7565b610767600061115e565b565b60606107938260405160200161077f91906125ea565b604051602081830303815290604052610f40565b6040516020016107a39190612663565b6040516020818303038152906040529050919050565b6000600760009054906101000a900473ffffffffffffffffffffffffffffffffffffffff16905090565b6060600180546107f29061243e565b80601f016020809104026020016040519081016040528092919081815260200182805461081e9061243e565b801561086b5780601f106108405761010080835404028352916020019161086b565b820191906000526020600020905b81548152906001019060200180831161084e57829003601f168201915b5050505050905090565b610887610880610d0c565b8383611224565b5050565b6108968484846104f3565b6108a284848484611393565b50505050565b60606108b382610c47565b5060006006600084815260200190815260200160002080546108d49061243e565b80601f01602080910402602001604051908101604052809291908181526020018280546109009061243e565b801561094d5780601f106109225761010080835404028352916020019161094d565b820191906000526020600020905b81548152906001019060200180831161093057829003601f168201915b50505050509050600061095e61154a565b905060008151036109735781925050506109b6565b6000825111156109a85780826040516020016109909291906124e2565b604051602081830303815290604052925050506109b6565b6109b184611561565b925050505b919050565b6109c36110d7565b60006109ce826105f5565b905060006109db82610769565b90506008600081546109ec906126b4565b9190508190555060006008549050610a0433826115ca565b610a0e81836115e8565b7f176b02bb2d12439ff7a20b59f402cca16c76f50508b13ef3166a600eb719354a81604051610a3d9190612224565b60405180910390a150505050565b6000600560008473ffffffffffffffffffffffffffffffffffffffff1673ffffffffffffffffffffffffffffffffffffffff16815260200190815260200160002060008373ffffffffffffffffffffffffffffffffffffffff1673ffffffffffffffffffffffffffffffffffffffff16815260200190815260200160002060009054906101000a900460ff16905092915050565b610ae76110d7565b600073ffffffffffffffffffffffffffffffffffffffff168173ffffffffffffffffffffffffffffffffffffffff1603610b595760006040517f1e4fbdf7000000000000000000000000000000000000000000000000000000008152600401610b509190611f90565b60405180910390fd5b610b628161115e565b50565b60007f80ac58cd000000000000000000000000000000000000000000000000000000007bffffffffffffffffffffffffffffffffffffffffffffffffffffffff1916827bffffffffffffffffffffffffffffffffffffffffffffffffffffffff19161480610c3057507f5b5e139f000000000000000000000000000000000000000000000000000000007bffffffffffffffffffffffffffffffffffffffffffffffffffffffff1916827bffffffffffffffffffffffffffffffffffffffffffffffffffffffff1916145b80610c405750610c3f82611644565b5b9050919050565b600080610c53836116ae565b9050600073ffffffffffffffffffffffffffffffffffffffff168173ffffffffffffffffffffffffffffffffffffffff1603610cc657826040517f7e273289000000000000000000000000000000000000000000000000000000008152600401610cbd9190612224565b60405180910390fd5b80915050919050565b60006004600083815260200190815260200160002060009054906101000a900473ffffffffffffffffffffffffffffffffffffffff169050919050565b600033905090565b610d2183838360016116eb565b505050565b600080610d32846116ae565b9050600073ffffffffffffffffffffffffffffffffffffffff168373ffffffffffffffffffffffffffffffffffffffff1614610d7457610d738184866118b0565b5b600073ffffffffffffffffffffffffffffffffffffffff168173ffffffffffffffffffffffffffffffffffffffff1614610e0557610db66000856000806116eb565b6001600360008373ffffffffffffffffffffffffffffffffffffffff1673ffffffffffffffffffffffffffffffffffffffff168152602001908152602001600020600082825403925050819055505b600073ffffffffffffffffffffffffffffffffffffffff168573ffffffffffffffffffffffffffffffffffffffff1614610e88576001600360008773ffffffffffffffffffffffffffffffffffffffff1673ffffffffffffffffffffffffffffffffffffffff168152602001908152602001600020600082825401925050819055505b846002600086815260200190815260200160002060006101000a81548173ffffffffffffffffffffffffffffffffffffffff021916908373ffffffffffffffffffffffffffffffffffffffff160217905550838573ffffffffffffffffffffffffffffffffffffffff168273ffffffffffffffffffffffffffffffffffffffff167fddf252ad1be2c89b69c2b068fc378daa952ba7f163c4a11628f55a4df523b3ef60405160405180910390a4809150509392505050565b606060008251905060008103610f6857604051806020016040528060008152509150506110d2565b60006003600283610f7991906126fc565b610f83919061275f565b6004610f8f9190612790565b90506000602082610fa091906126fc565b67ffffffffffffffff811115610fb957610fb8612074565b5b6040519080825280601f01601f191660200182016040528015610feb5781602001600182028036833780820191505090505b5090506000604051806060016040528060408152602001612b5d604091399050600181016020830160005b8681101561108f5760038101905062ffffff818a015116603f8160121c168401518060081b905060ff603f83600c1c1686015116810190508060081b905060ff603f8360061c1686015116810190508060081b905060ff603f831686015116810190508060e01b90508084526004840193505050611016565b5060038606600181146110a957600281146110b9576110c4565b613d3d60f01b60028303526110c4565b603d60f81b60018303525b508484525050819450505050505b919050565b6110df610d0c565b73ffffffffffffffffffffffffffffffffffffffff166110fd6107b9565b73ffffffffffffffffffffffffffffffffffffffff161461115c57611120610d0c565b6040517f118cdaa70000000000000000000000000000000000000000000000000000000081526004016111539190611f90565b60405180910390fd5b565b6000600760009054906101000a900473ffffffffffffffffffffffffffffffffffffffff16905081600760006101000a81548173ffffffffffffffffffffffffffffffffffffffff021916908373ffffffffffffffffffffffffffffffffffffffff1602179055508173ffffffffffffffffffffffffffffffffffffffff168173ffffffffffffffffffffffffffffffffffffffff167f8be0079c531659141344cd1fd0a4f28419497f9722a3daafe3b4186f6b6457e060405160405180910390a35050565b600073ffffffffffffffffffffffffffffffffffffffff168273ffffffffffffffffffffffffffffffffffffffff160361129557816040517f5b08ba1800000000000000000000000000000000000000000000000000000000815260040161128c9190611f90565b60405180910390fd5b80600560008573ffffffffffffffffffffffffffffffffffffffff1673ffffffffffffffffffffffffffffffffffffffff16815260200190815260200160002060008473ffffffffffffffffffffffffffffffffffffffff1673ffffffffffffffffffffffffffffffffffffffff16815260200190815260200160002060006101000a81548160ff0219169083151502179055508173ffffffffffffffffffffffffffffffffffffffff168373ffffffffffffffffffffffffffffffffffffffff167f17307eab39ab6107e8899845ad3d59bd9653f200f220920489ca2b5937696c31836040516113869190611e1f565b60405180910390a3505050565b60008373ffffffffffffffffffffffffffffffffffffffff163b1115611544578273ffffffffffffffffffffffffffffffffffffffff1663150b7a026113d7610d0c565b8685856040518563ffffffff1660e01b81526004016113f99493929190612827565b6020604051808303816000875af192505050801561143557506040513d601f19601f820116820180604052508101906114329190612888565b60015b6114b9573d8060008114611465576040519150601f19603f3d011682016040523d82523d6000602084013e61146a565b606091505b5060008151036114b157836040517f64a0ae920000000000000000000000000000000000000000000000000000000081526004016114a89190611f90565b60405180910390fd5b805181602001fd5b63150b7a0260e01b7bffffffffffffffffffffffffffffffffffffffffffffffffffffffff1916817bffffffffffffffffffffffffffffffffffffffffffffffffffffffff19161461154257836040517f64a0ae920000000000000000000000000000000000000000000000000000000081526004016115399190611f90565b60405180910390fd5b505b50505050565b606060405180602001604052806000815250905090565b606061156c82610c47565b50600061157761154a565b9050600081511161159757604051806020016040528060008152506115c2565b806115a184611974565b6040516020016115b29291906124e2565b6040516020818303038152906040525b915050919050565b6115e4828260405180602001604052806000815250611a42565b5050565b806006600084815260200190815260200160002090816116089190612a61565b507ff8e1a15aba9398e019f0b49df1a4fde98ee17ae345cb5f6b5e2c27f5033e8ce7826040516116389190612224565b60405180910390a15050565b60007f01ffc9a7000000000000000000000000000000000000000000000000000000007bffffffffffffffffffffffffffffffffffffffffffffffffffffffff1916827bffffffffffffffffffffffffffffffffffffffffffffffffffffffff1916149050919050565b60006002600083815260200190815260200160002060009054906101000a900473ffffffffffffffffffffffffffffffffffffffff169050919050565b80806117245750600073ffffffffffffffffffffffffffffffffffffffff168273ffffffffffffffffffffffffffffffffffffffff1614155b1561185857600061173484610c47565b9050600073ffffffffffffffffffffffffffffffffffffffff168373ffffffffffffffffffffffffffffffffffffffff161415801561179f57508273ffffffffffffffffffffffffffffffffffffffff168173ffffffffffffffffffffffffffffffffffffffff1614155b80156117b257506117b08184610a4b565b155b156117f457826040517fa9fbf51f0000000000000000000000000000000000000000000000000000000081526004016117eb9190611f90565b60405180910390fd5b811561185657838573ffffffffffffffffffffffffffffffffffffffff168273ffffffffffffffffffffffffffffffffffffffff167f8c5be1e5ebec7d5bd14f71427d1e84f3dd0314c0f7b2291e5b200ac8c7c3b92560405160405180910390a45b505b836004600085815260200190815260200160002060006101000a81548173ffffffffffffffffffffffffffffffffffffffff021916908373ffffffffffffffffffffffffffffffffffffffff16021790555050505050565b6118bb838383611a5e565b61196f57600073ffffffffffffffffffffffffffffffffffffffff168373ffffffffffffffffffffffffffffffffffffffff160361193057806040517f7e2732890000000000000000000000000000000000000000000000000000000081526004016119279190612224565b60405180910390fd5b81816040517f177e802f000000000000000000000000000000000000000000000000000000008152600401611966929190612b33565b60405180910390fd5b505050565b60606000600161198384611b1f565b01905060008167ffffffffffffffff8111156119a2576119a1612074565b5b6040519080825280601f01601f1916602001820160405280156119d45781602001600182028036833780820191505090505b509050600082602001820190505b600115611a37578080600190039150507f3031323334353637383961626364656600000000000000000000000000000000600a86061a8153600a8581611a2b57611a2a612730565b5b049450600085036119e2575b819350505050919050565b611a4c8383611c72565b611a596000848484611393565b505050565b60008073ffffffffffffffffffffffffffffffffffffffff168373ffffffffffffffffffffffffffffffffffffffff1614158015611b1657508273ffffffffffffffffffffffffffffffffffffffff168473ffffffffffffffffffffffffffffffffffffffff161480611ad75750611ad68484610a4b565b5b80611b1557508273ffffffffffffffffffffffffffffffffffffffff16611afd83610ccf565b73ffffffffffffffffffffffffffffffffffffffff16145b5b90509392505050565b600080600090507a184f03e93ff9f4daa797ed6e38ed64bf6a1f0100000000000000008310611b7d577a184f03e93ff9f4daa797ed6e38ed64bf6a1f0100000000000000008381611b7357611b72612730565b5b0492506040810190505b6d04ee2d6d415b85acef81000000008310611bba576d04ee2d6d415b85acef81000000008381611bb057611baf612730565b5b0492506020810190505b662386f26fc100008310611be957662386f26fc100008381611bdf57611bde612730565b5b0492506010810190505b6305f5e1008310611c12576305f5e1008381611c0857611c07612730565b5b0492506008810190505b6127108310611c37576127108381611c2d57611c2c612730565b5b0492506004810190505b60648310611c5a5760648381611c5057611c4f612730565b5b0492506002810190505b600a8310611c69576001810190505b80915050919050565b600073ffffffffffffffffffffffffffffffffffffffff168273ffffffffffffffffffffffffffffffffffffffff1603611ce45760006040517f64a0ae92000000000000000000000000000000000000000000000000000000008152600401611cdb9190611f90565b60405180910390fd5b6000611cf283836000610d26565b9050600073ffffffffffffffffffffffffffffffffffffffff168173ffffffffffffffffffffffffffffffffffffffff1614611d665760006040517f73c6ac6e000000000000000000000000000000000000000000000000000000008152600401611d5d9190611f90565b60405180910390fd5b505050565b6000604051905090565b600080fd5b600080fd5b60007fffffffff0000000000000000000000000000000000000000000000000000000082169050919050565b611db481611d7f565b8114611dbf57600080fd5b50565b600081359050611dd181611dab565b92915050565b600060208284031215611ded57611dec611d75565b5b6000611dfb84828501611dc2565b91505092915050565b60008115159050919050565b611e1981611e04565b82525050565b6000602082019050611e346000830184611e10565b92915050565b600081519050919050565b600082825260208201905092915050565b60005b83811015611e74578082015181840152602081019050611e59565b60008484015250505050565b6000601f19601f8301169050919050565b6000611e9c82611e3a565b611ea68185611e45565b9350611eb6818560208601611e56565b611ebf81611e80565b840191505092915050565b60006020820190508181036000830152611ee48184611e91565b905092915050565b6000819050919050565b611eff81611eec565b8114611f0a57600080fd5b50565b600081359050611f1c81611ef6565b92915050565b600060208284031215611f3857611f37611d75565b5b6000611f4684828501611f0d565b91505092915050565b600073ffffffffffffffffffffffffffffffffffffffff82169050919050565b6000611f7a82611f4f565b9050919050565b611f8a81611f6f565b82525050565b6000602082019050611fa56000830184611f81565b92915050565b611fb481611f6f565b8114611fbf57600080fd5b50565b600081359050611fd181611fab565b92915050565b60008060408385031215611fee57611fed611d75565b5b6000611ffc85828601611fc2565b925050602061200d85828601611f0d565b9150509250929050565b6000806000606084860312156120305761202f611d75565b5b600061203e86828701611fc2565b935050602061204f86828701611fc2565b925050604061206086828701611f0d565b9150509250925092565b600080fd5b600080fd5b7f4e487b7100000000000000000000000000000000000000000000000000000000600052604160045260246000fd5b6120ac82611e80565b810181811067ffffffffffffffff821117156120cb576120ca612074565b5b80604052505050565b60006120de611d6b565b90506120ea82826120a3565b919050565b600067ffffffffffffffff82111561210a57612109612074565b5b61211382611e80565b9050602081019050919050565b82818337600083830152505050565b600061214261213d846120ef565b6120d4565b90508281526020810184848401111561215e5761215d61206f565b5b612169848285612120565b509392505050565b600082601f8301126121865761218561206a565b5b813561219684826020860161212f565b91505092915050565b6000602082840312156121b5576121b4611d75565b5b600082013567ffffffffffffffff8111156121d3576121d2611d7a565b5b6121df84828501612171565b91505092915050565b6000602082840312156121fe576121fd611d75565b5b600061220c84828501611fc2565b91505092915050565b61221e81611eec565b82525050565b60006020820190506122396000830184612215565b92915050565b61224881611e04565b811461225357600080fd5b50565b6000813590506122658161223f565b92915050565b6000806040838503121561228257612281611d75565b5b600061229085828601611fc2565b92505060206122a185828601612256565b9150509250929050565b600067ffffffffffffffff8211156122c6576122c5612074565b5b6122cf82611e80565b9050602081019050919050565b60006122ef6122ea846122ab565b6120d4565b90508281526020810184848401111561230b5761230a61206f565b5b612316848285612120565b509392505050565b600082601f8301126123335761233261206a565b5b81356123438482602086016122dc565b91505092915050565b6000806000806080858703121561236657612365611d75565b5b600061237487828801611fc2565b945050602061238587828801611fc2565b935050604061239687828801611f0d565b925050606085013567ffffffffffffffff8111156123b7576123b6611d7a565b5b6123c38782880161231e565b91505092959194509250565b600080604083850312156123e6576123e5611d75565b5b60006123f485828601611fc2565b925050602061240585828601611fc2565b9150509250929050565b7f4e487b7100000000000000000000000000000000000000000000000000000000600052602260045260246000fd5b6000600282049050600182168061245657607f821691505b6020821081036124695761246861240f565b5b50919050565b60006060820190506124846000830186611f81565b6124916020830185612215565b61249e6040830184611f81565b949350505050565b600081905092915050565b60006124bc82611e3a565b6124c681856124a6565b93506124d6818560208601611e56565b80840191505092915050565b60006124ee82856124b1565b91506124fa82846124b1565b91508190509392505050565b7f7b226e616d65223a20224c434d204f4e2d434841494e4544222c20226465736360008201527f72697074696f6e223a2022412073696d706c6520535647206261736564206f6e60208201527f2d636861696e204e4654222c2022696d616765223a2200000000000000000000604082015250565b60006125886056836124a6565b915061259382612506565b605682019050919050565b7f227d000000000000000000000000000000000000000000000000000000000000600082015250565b60006125d46002836124a6565b91506125df8261259e565b600282019050919050565b60006125f58261257b565b915061260182846124b1565b915061260c826125c7565b915081905092915050565b7f646174613a6170706c69636174696f6e2f6a736f6e3b6261736536342c000000600082015250565b600061264d601d836124a6565b915061265882612617565b601d82019050919050565b600061266e82612640565b915061267a82846124b1565b915081905092915050565b7f4e487b7100000000000000000000000000000000000000000000000000000000600052601160045260246000fd5b60006126bf82611eec565b91507fffffffffffffffffffffffffffffffffffffffffffffffffffffffffffffffff82036126f1576126f0612685565b5b600182019050919050565b600061270782611eec565b915061271283611eec565b925082820190508082111561272a57612729612685565b5b92915050565b7f4e487b7100000000000000000000000000000000000000000000000000000000600052601260045260246000fd5b600061276a82611eec565b915061277583611eec565b92508261278557612784612730565b5b828204905092915050565b600061279b82611eec565b91506127a683611eec565b92508282026127b481611eec565b915082820484148315176127cb576127ca612685565b5b5092915050565b600081519050919050565b600082825260208201905092915050565b60006127f9826127d2565b61280381856127dd565b9350612813818560208601611e56565b61281c81611e80565b840191505092915050565b600060808201905061283c6000830187611f81565b6128496020830186611f81565b6128566040830185612215565b818103606083015261286881846127ee565b905095945050505050565b60008151905061288281611dab565b92915050565b60006020828403121561289e5761289d611d75565b5b60006128ac84828501612873565b91505092915050565b60008190508160005260206000209050919050565b60006020601f8301049050919050565b600082821b905092915050565b6000600883026129177fffffffffffffffffffffffffffffffffffffffffffffffffffffffffffffffff826128da565b61292186836128da565b95508019841693508086168417925050509392505050565b6000819050919050565b600061295e61295961295484611eec565b612939565b611eec565b9050919050565b6000819050919050565b61297883612943565b61298c61298482612965565b8484546128e7565b825550505050565b600090565b6129a1612994565b6129ac81848461296f565b505050565b5b818110156129d0576129c5600082612999565b6001810190506129b2565b5050565b601f821115612a15576129e6816128b5565b6129ef846128ca565b810160208510156129fe578190505b612a12612a0a856128ca565b8301826129b1565b50505b505050565b600082821c905092915050565b6000612a3860001984600802612a1a565b1980831691505092915050565b6000612a518383612a27565b9150826002028217905092915050565b612a6a82611e3a565b67ffffffffffffffff811115612a8357612a82612074565b5b612a8d825461243e565b612a988282856129d4565b600060209050601f831160018114612acb5760008415612ab9578287015190505b612ac38582612a45565b865550612b2b565b601f198416612ad9866128b5565b60005b82811015612b0157848901518255600182019150602085019450602081019050612adc565b86831015612b1e5784890151612b1a601f891682612a27565b8355505b6001600288020188555050505b505050505050565b6000604082019050612b486000830185611f81565b612b556020830184612215565b939250505056fe4142434445464748494a4b4c4d4e4f505152535455565758595a6162636465666768696a6b6c6d6e6f707172737475767778797a303132333435363738392b2fa2646970667358221220a37f47774725f1aac466ee6ea3a19cae549440bc7370f10002931883d2d36ffe64736f6c634300081a0033",
  "linkReferences": {},
  "deployedLinkReferences": {}
}